:100000000C943A000C9438020C9438020C94380288
:100010000C9438020C9438020C9438020C94380278
:100020000C9438020C9438020C9445010C941E0177
:100030000C94CA010C948B010C9438020C94380275
:100040000C9438020C9438020C94B5000C943802CD
:100050000C94FB010C9438020C9438020C94380276
:100060000C9438020C94380201000185800185014E
:100070008A00047E11241FBECFEFD8E0DEBFCDBFC3
:10008000E8E6F0E040E017C0B591A59135912591E3
:10009000059107FD0CC095918591EF01F92FE82F8F
:1000A00005900D92A217B307D9F7FE0104C01D9267
:1000B000A217B307E1F7E437F40731F70E946400B1
:0800C0000C942402F894FFCF18
:1000C8008FE084B9E1E8F0E080818B618083E0E82B
:1000D800F0E08081826A808388EA91E090938B00C7
:1000E80080938A0087E893E1909387008093860045
:1000F80084E491E09093890080938800EFE6F0E033
:1001080080818762808340E060E875E280E090E06B
:100118000E94ED0078949091840189E2989F812D46
:10012800112486958695869522E3829F901911243D
:100138009A3021F486E00E94AB01EDCF90918401C2
:1001480089E2989F812D112486958695869522E3CC
:10015800829F901911249111DECF83E00E94E30160
:02016800DACFEC
:10016A001F920F920FB60F9211248F939F93EF93C2
:10017A00FF93E0918001F09181018091C600E050E7
:10018A00FF4F808380918201909183010196909321
:10019A00830180938201809180019091810101966F
:1001AA0090938101809380018091800190918101D7
:1001BA008038910520F01092810110928001FF9100
:1001CA00EF919F918F910F900FBE0F901F901895EE
:1001DA00442339F0E0ECF0E0208122602083A8E09B
:1001EA0001C0A0E1B0E09B01AC010E9419029B0191
:1001FA00AC0160E074E284EF90E00E946901BA0108
:10020A00A9014150510961097109DB01CA01882715
:10021A009F70AA27BB27892F9A2FAB2FBB278093C2
:10022A00C5004093C400E1ECF0E08081886D8083D2
:02023A00089525
:10023C001F920F920FB60F9211242F938F939F93AF
:10024C0025B190918701892F90E0880F991F880F15
:10025C00991F922F9B7F892B85B98091870180955F
:10026C0080938701809184018F5F809384019F919B
:0E027C008F912F910F900FBE0F901F9018952D
:10028A001F920F920FB60F9211242F938F939F9361
:10029A0025B190918501892F90E0880F991F880FC9
:1002AA00991F880F991F922F977F892B85B9809163
:1002BA0085018095809385019F918F912F910F9051
:0802CA000FBE0F901F90189564
:1002D200A1E21A2EAA1BBB1BFD010DC0AA1FBB1F48
:1002E200EE1FFF1FA217B307E407F50720F0A21BBA
:1002F200B30BE40BF50B661F771F881F991F1A9427
:1003020069F760957095809590959B01AC01BD0150
:04031200CF0108957A
:100316001F920F920FB60F9211242F938F939F93D4
:1003260025B190918801892F90E0880F991F922F0F
:100336009D7F892B85B9809188018095809388015E
:100346009F918F912F910F900FBE0F901F90189530
:100356001F93CF93DF93182FD0E00CC08FE40E9439
:100366002F02CF5F01C0C0E0DC17C0F78DE00E940E
:100376002F02DF5F8D2F90E0212F012E000C330B13
:0E0386008217930784F3DF91CF911F910895A2
:100394001F920F920FB60F9211248F939F9385B1E2
:1003A400909186018E7F892B85B9809186018095F5
:1003B400809386019F918F910F900FBE0F901F9095
:0203C40018958A
:1003C6001F93CF93DF93D82F10E00CC08FE40E94C9
:1003D6002F02CF5F01C0C0E0DC17C0F78DE00E949E
:1003E6002F021F5F1D17B8F3DF91CF911F9108955C
:1003F6001F920F920FB60F9211248F9381E0809374
:0E04060089018F910F900FBE0F901F901895D7
:10041400A29FB001B39FC001A39F700D811D112441
:0E042400911DB29F700D811D1124911D089530
:100432000E940A02A59F900DB49F900DA49F800D6B
:06044200911D1124089534
:10044800EC010E943D020E943C02CE010E943E0245
:06045800CE010E943A02F1
:10045E00909189019923E1F3109289018093C6004E
:02046E000895EF
:040470000C940000E8
:040474000E94620080
:020478000895E5
:02047A000895E3
:02047C000895E1
:01047E00017C
:01047F00017B
:01048000017A
:010481000179
:010482000178
:00000001FF
