:100000000C943A000C9471020C9471020C947102DD
:100010000C9471020C9471020C9471020C94710294
:100020000C9471020C9471020C9471020C94710284
:100030000C9471020C9471020C9471020C94710274
:100040000C94C6010C9471020C9471020C94710210
:100050000C9471020C9471020C9471020C94710254
:100060000C9471020C9471020100012C80012C018E
:100070002D0004F011241FBECFEFD8E0DEBFCDBFAE
:10008000E8E6F0E040E017C0B591A59135912591E3
:10009000059107FD0CC095918591EF01F92FE82F8F
:1000A00005900D92A217B307D9F7FE0104C01D9267
:1000B000A217B307E1F7E437F40731F70E94F9001C
:0800C0000C945A02F894FFCFE2
:1000C8004F925F926F927F92BF92CF92DF92EF92A0
:1000D800FF920F931F93CF93DF93B82E0E9437029E
:1000E8008B2D0E944402CB2DD0E08E01000F111FF2
:1000F800000F111F025F1E4FF801208131814281DC
:100108005381A6E4B0E00E944F026B017C018B2D65
:100118000E94E201DC0120E231EA47E050E00E945F
:100128004F02DC01CB01072E7AE0B595A79597958C
:1001380087957A95D1F7702D2C013D01440C551CFB
:10014800661C771C840D951DA61DB71DAC01BD014D
:10015800440F551F661F771F440F551F661F771FD3
:10016800840F951FA61FB71FAC01BD01440F551F73
:10017800661F771FCB01BA016C0D7D1D8E1D9F1D5B
:1001880024E630E040E050E00E94A401F80120831A
:10019800318342835383608171818281938128EE08
:1001A80033E040E050E00E94A401CC0FDD1FCE5F99
:1001B800DE4F398328838B2D0E942902F1E0BF127C
:1001C80006C081E090E09093010180930001DF91E7
:1001D800CF911F910F91FF90EF90DF90CF90BF903C
:0A01E8007F906F905F904F90089594
:1001F200CF93DF9300D000D0CDB7DEB765E070E0DB
:1002020084E60E945B0166E070E084E60E945B0186
:100212000E940B0281E00E94370280E00E943702B6
:1002220084E10E946E020E94650278946AE070E0A6
:1002320085E090E00E94F70162E370E086E090E0E2
:100242000E94F70100E010E080910001909101010D
:10025200892B91F069817A8185E090E00E94F70113
:100262006B817C8186E090E00E94F701109201018F
:100272001092000100E010E0802F0E946400C8018B
:10028200880F991FFC01EE5FFE4F20813181369568
:100292002795329522952F7023273F702327E1E07F
:1002A200F0E0EC0FFD1FE80FF91F318320830F5F91
:0402B2001F4FCACF41
:1002B6008434C1F018F4823431F00895823609F19D
:1002C600843679F1089524B181E090E002C0880F68
:1002D600991F6A95E2F7922F982B94B995B1892BBD
:1002E60085B908952AB181E090E002C0880F991F70
:1002F6006A95E2F7922F982B9AB99BB1892B8BB905
:10030600089524B181E090E002C0880F991F6A9594
:10031600E2F7922F982B94B995B18095892385B9E8
:1003260008952AB181E090E002C0880F991F6A956E
:10033600E2F7922F982B9AB99BB1809589238BB9B6
:02034600089518
:10034800A1E21A2EAA1BBB1BFD010DC0AA1FBB1FD1
:10035800EE1FFF1FA217B307E407F50720F0A21B43
:10036800B30BE40BF50B661F771F881F991F1A94B0
:1003780069F760957095809590959B01AC01BD01DA
:04038800CF01089504
:10038C001F920F920FB60F9211248F93EF93FF933E
:10039C0080912701809586BDE8E2F1E0828180950D
:1003AC0088BD8081809587BDFF91EF918F910F90D3
:0803BC000FBE0F901F90189571
:1003C400ECE7F0E09081907F8770892B8083EAE7E7
:1003D400F0E080818064808380917A0086FDFCCF88
:0A03E400809178009091790008954F
:1003EE008530910519F0069741F008956D5F7F4FA6
:1003FE00709329016093280108956D5F7F4F70936C
:08040E002B0160932A010895FF
:10041600109226018CE38093270181EF84BD85E04D
:0E04260085BDEEE6F0E080818760808308955A
:10043400A29FB001B39FC001A39F700D811D112421
:0E044400911DB29F700D811D1124911D089510
:10045200EEE7F0E0908121E030E002C0220F331F8E
:0C0462008A95E2F7209529232083089555
:10046E00EEE7F0E0908121E030E002C0220F331F72
:0A047E008A95E2F7292B20830895E8
:10048800ECE7F0E09081907F90839081987F87706F
:06049800892B808308950A
:10049E000E941A02A59F900DB49F900DA49F800DEF
:0604AE00911D11240895C8
:1004B400EC010E9476020E947502CE010E9477022E
:0604C400CE010E9473024C
:1004CA00EAE7F0E080818668808380E480937C009C
:0204DA00089583
:0604DC0080932C0108953D
:0404E2000C94000076
:0404E6000E9462000E
:0204EA00089573
:0204EC00089571
:0204EE0008956F
:0104F0000506
:00000001FF
