:100000000C943A000C94AE020C94AE020C94AE0226
:100010000C94AE020C94AE020C94AE020C94AE02A0
:100020000C94AE020C94AE020C94AE020C94AE0290
:100030000C94AE020C94AE020C94F3010C940902E1
:100040000C94AD010C94AE020C94AE020C94AE0272
:100050000C94AE020C94AE020C94AE020C94AE0260
:100060000C94AE020C94AE020100012C80012C0114
:100070002D00056A11241FBECFEFD8E0DEBFCDBF33
:10008000E8E6F0E040E017C0B591A59135912591E3
:10009000059107FD0CC095918591EF01F92FE82F8F
:1000A00005900D92A217B307D9F7FE0104C01D9267
:1000B000A217B307E1F7E437F40731F70E94F9001C
:0800C0000C949702F894FFCFA5
:1000C8004F925F926F927F92BF92CF92DF92EF92A0
:1000D800FF920F931F93CF93DF93B82E0E94740261
:1000E8008B2D0E948102CB2DD0E08E01000F111FB5
:1000F800000F111F025F1E4FF801208131814281DC
:100108005381A6E4B0E00E948C026B017C018B2D28
:100118000E941F02DC0120E231EA47E050E00E9421
:100128008C02DC01CB01072E7AE0B595A79597954F
:1001380087957A95D1F7702D2C013D01440C551CFB
:10014800661C771C840D951DA61DB71DAC01BD014D
:10015800440F551F661F771F440F551F661F771FD3
:10016800840F951FA61FB71FAC01BD01440F551F73
:10017800661F771FCB01BA016C0D7D1D8E1D9F1D5B
:1001880024E630E040E050E00E94D101F8012083ED
:10019800318342835383608171818281938128EE08
:1001A80033E040E050E00E94D101CC0FDD1FCE5F6C
:1001B800DE4F398328838B2D0E946602F1E0BF123F
:1001C80006C081E090E09093010180930001DF91E7
:1001D800CF911F910F91FF90EF90DF90CF90BF903C
:0A01E8007F906F905F904F90089594
:1001F200CF93DF9300D000D0CDB7DEB765E070E0DB
:1002020084E60E94640166E070E084E60E94640174
:100212000E94480281E00E94740280E00E947402FF
:1002220084E10E94AB020E94A20278946AE070E02C
:1002320085E090E00E9434026AE070E086E090E09F
:100242000E94340200E010E08091000190910101CF
:10025200892B91F069817A8185E090E00E943402D5
:100262006B817C8186E090E00E9434021092010151
:100272001092000100E010E0802F0E946400F8015B
:10028200EE0FFF1FDF01AE5FBE4F4D915C919A01F1
:10029200AFEAB7E40E945702481B590B569547959F
:1002A200840F951F929582958F7089279F70892759
:1002B20021E030E02C0F3D1FE20FF31F918380837A
:0602C2000F5F1F4FC1CFCA
:1002C8008434C1F018F4823431F00895823609F18B
:1002D800843679F1089524B181E090E002C0880F56
:1002E800991F6A95E2F7922F982B94B995B1892BAB
:1002F80085B908952AB181E090E002C0880F991F5E
:100308006A95E2F7922F982B9AB99BB1892B8BB9F2
:10031800089524B181E090E002C0880F991F6A9582
:10032800E2F7922F982B94B995B18095892385B9D6
:1003380008952AB181E090E002C0880F991F6A955C
:10034800E2F7922F982B9AB99BB1809589238BB9A4
:02035800089506
:10035A001F920F920FB60F9211248F939F93EF93D0
:10036A00FF9380912701809586BDE8E2F1E08281C2
:10037A00938196958795809588BD80819181969580
:10038A008795809587BDFF91EF919F918F910F90EF
:08039A000FBE0F901F90189593
:1003A200A1E21A2EAA1BBB1BFD010DC0AA1FBB1F77
:1003B200EE1FFF1FA217B307E407F50720F0A21BE9
:1003C200B30BE40BF50B661F771F881F991F1A9456
:1003D20069F760957095809590959B01AC01BD0180
:0403E200CF010895AA
:1003E6001F920F920FB60F9211248F939F938091B5
:1003F60028019091290196958795809587BD9F91B3
:0C0406008F910F900FBE0F901F90189563
:100412001F920F920FB60F9211248F939F93809188
:100422002A0190912B0196958795809588BD9F9181
:0C0432008F910F900FBE0F901F90189537
:10043E00ECE7F0E09081907F8770892B8083EAE76C
:10044E00F0E080818064808380917A0086FDFCCF0D
:0A045E0080917800909179000895D4
:100468008530910519F0069741F00895665F7F4F32
:1004780070932901609328010895665F7F4F7093F8
:080488002B0160932A01089585
:10049000109226018CE38093270181EF84BD85E0D3
:0E04A00085BDEEE6F0E08081876080830895E0
:1004AE00A29FB001B39FC001A39F700D811D1124A7
:0E04BE00911DB29F700D811D1124911D089596
:1004CC00EEE7F0E0908121E030E002C0220F331F14
:0C04DC008A95E2F72095292320830895DB
:1004E800EEE7F0E0908121E030E002C0220F331FF8
:0A04F8008A95E2F7292B208308956E
:10050200ECE7F0E09081907F90839081987F8770F4
:06051200892B808308958F
:100518000E945702A59F900DB49F900DA49F800D37
:06052800911D112408954D
:10052E00EC010E94B3020E94B202CE010E94B402FC
:06053E00CE010E94B00294
:10054400EAE7F0E080818668808380E480937C0021
:02055400089508
:0605560080932C010895C2
:04055C000C940000FB
:040560000E94620093
:020564000895F8
:020566000895F6
:020568000895F4
:01056A00058B
:00000001FF
