:100000000C943A000C943E010C943E010C943E0179
:100010000C943E010C943E010C943E010C943E0164
:100020000C943E010C943E010C94EB000C949C004B
:100030000C940B010C943E010C943E010C943E0177
:100040000C943E010C943E010C9464000C943E010F
:100050000C9424010C943E010C943E010C943E013E
:100060000C943E010C943E01010001858001850144
:100070008900028A11241FBECFEFD8E0DEBFCDBFBA
:10008000E8E6F0E040E017C0B591A59135912591E3
:10009000059107FD0CC095918591EF01F92FE82F8F
:1000A00005900D92A217B307D9F7FE0104C01D9267
:1000B000A217B307E1F7E437F40731F70E94C6004F
:0800C0000C943301F894FFCF0A
:1000C8001F920F920FB60F9211248F939F93EF9365
:1000D800FF93E0918001F09181018091C600E0508A
:1000E800FF4F8083809182019091830101969093C4
:1000F8008301809382018091800190918101019612
:100108009093810180938001809180019091810179
:100118008038910520F01092810110928001FF91A2
:10012800EF919F918F910F900FBE0F901F90189590
:100138001F920F920FB60F9211242F938F939F93B4
:1001480025B190918501892F90E0880F991F880F1C
:10015800991F922F9B7F892B85B980918501809566
:1001680080938501809184018F5F8093840186B399
:100178008D7F86BB9F918F912F910F900FBE0F900F
:040188001F90189517
:10018C0087E084B9E1E8F0E080818B618083E0E86E
:10019C00F0E08081836F80838DEB9AE090938B00ED
:1001AC0080938A0081E99BE390938700809386007B
:1001BC008FE496E49093890080938800EFE6F0E05A
:0A01CC008081866280837894FFCF63
:1001D6001F920F920FB60F9211242F938F939F9316
:1001E60025B190918601892F90E0880F991F922F53
:1001F6009D7F892B85B980918601809580938601A4
:100206009F918F912F910F900FBE0F901F90189571
:100216001F920F920FB60F9211248F939F9385B161
:10022600909187018E7F892B85B980918701809572
:10023600809387019F918F910F900FBE0F901F9013
:02024600189509
:100248001F920F920FB60F9211248F9381E0809323
:0E02580088018F910F900FBE0F901F90189588
:10026600EC010E9443010E944201CE010E9444011A
:06027600CE010E944001D0
:04027C000C940000DE
:040280000E94620076
:020284000895DB
:020286000895D9
:020288000895D7
:01028A000172
:01028B000171
:01028C000170
:01028D00016F
:00000001FF
