:100000000C9434000C9446010C9446010C94460167
:100010000C9446010C9446010C9446010C94460144
:100020000C9446010C9446010C9446010C94460134
:100030000C9446010C9446010C9446010C94460124
:100040000C9446010C9446010C9446010C94460114
:100050000C9446010C9446010C9446010C94460104
:100060000C9446010C94460111241FBECFEFD8E03A
:10007000DEBFCDBF0E94D8000C942F01F894FFCFB3
:100080002BB191E0811101C090E02F70922B9BB9B0
:1000900095B19E7F95B995B1926095B9EFE3FFE177
:1000A0003197F1F700C0000095B19D7F95B9EFE35E
:1000B000FFE13197F1F700C000002BB1F0E18F9F15
:1000C000C0011124922F9F70892B8BB985B182605A
:1000D00085B98FE39FE10197F1F700C0000085B17A
:1000E0008D7F85B9EFE3FFE13197F1F700C00000A4
:0200F000089571
:1000F2009BB19F70282F207F922B9BB995B1916065
:1001020095B995B1926095B9EFE3FFE13197F1F7B7
:1001120000C0000095B19D7F95B9EFE3FFE13197F3
:10012200F1F700C000002BB1F0E18F9FC001112454
:10013200922F9F70892B8BB985B1826085B98FE32D
:100142009FE10197F1F700C0000085B18D7F85B96D
:0E015200EFE3FFE13197F1F700C000000895E0
:10016000803219F40E9440000895843219F40E94EC
:1001700040000895883219F40E94400008958C329E
:1001800019F40E9440000895803319F40E94400041
:100190000895843319F40E9440000895883319F4B7
:1001A0000E94400008958C3311F40E94400008958D
:1001B00080EF8AB983E084B90E9421010E94420144
:1001C0002FEF8FE097E2215080409040E1F700C090
:1001D000000084E40E9479002FEF8FE097E2215025
:1001E00080409040E1F700C0000085E40E94790063
:0201F000E7CF57
:1001F2008C3019F40E94400008958D3019F40E9449
:10020200400008958E3019F40E94400008958F3006
:0802120011F40E944000089560
:10021A00803119F40E9440000895843119F40E9433
:10022A0040000895883119F40E94400008958C31E5
:08023A0011F40E944000089538
:100242000E943A0188E20E94B0008EE00E94F9000A
:0C0252008CE10E940D010E943E01089505
:10025E00EC010E944B010E944A01CE010E944C010A
:06026E00CE010E944801D0
:0802740082E00E9440000895A1
:08027C0081E00E94400008959A
:0802840080EC0E944000089587
:04028C000C940000CE
:040290000E943E008A
:020294000895CB
:020296000895C9
:020298000895C7
:00000001FF
