:100000000C943A000C94B9010C94B9010C94B90108
:100010000C94B9010C94B9010C94B9010C94B90178
:100020000C94B9010C94B9010C94B9010C94B90168
:100030000C94B9010C94B9010C94B9010C94B90158
:100040000C94B9010C94B9010C94A4000C94B9015E
:100050000C946A010C94B9010C94B9010C94B90187
:100060000C94B9010C94B90101000186800186014C
:100070008700038011241FBECFEFD8E0DEBFCDBFC5
:10008000E8E6F0E040E017C0B591A59135912591E3
:10009000059107FD0CC095918591EF01F92FE82F8F
:1000A00005900D92A217B307D9F7FE0104C01D9267
:1000B000A217B307E1F7E437F40731F70E946C00A9
:0800C0000C94A001F894FFCF9D
:1000C80050726F6772616D2053746172740A0D000B
:1000D800CF93DF93CDB7DEB760970FB6F894DEBF46
:1000E8000FBECDBF28EC30E040E080E1F901DE0131
:1000F8001196742F0E9488018AB1826F8AB940E0F4
:1001080060E875E280E090E00E94DC007894CE011F
:1001180001960E944F0110E101C010E10E94B40154
:10012800892BE1F30E942F010E94AB018BB18F70E4
:100138008BB98BB1812B8BB911237CF3110FEECFC7
:100148001F920F920FB60F9211248F939F93EF93E4
:10015800FF93E0918201F09183018091C600E05005
:10016800FF4F80838091840190918501019690933F
:100178008501809384018091820190918301019689
:1001880090938301809382018091820190918301F1
:100198008038910520F01092830110928201FF911E
:1001A800EF919F918F910F900FBE0F901F90189510
:1001B800442339F0E0ECF0E0208122602083A8E0BD
:1001C80001C0A0E1B0E09B01AC010E9495019B0138
:1001D800AC0160E074E284EF90E00E940D01BA0186
:1001E800A9014150510961097109DB01CA01882738
:1001F8009F70AA27BB27892F9A2FAB2FBB278093E5
:10020800C5004093C400E1ECF0E08081886D8083F4
:02021800089547
:10021A00A1E21A2EAA1BBB1BFD010DC0AA1FBB1F00
:10022A00EE1FFF1FA217B307E407F50720F0A21B72
:10023A00B30BE40BF50B661F771F881F991F1A94DF
:10024A0069F760957095809590959B01AC01BD0109
:04025A00CF01089533
:10025E002091800130918101F901E050FF4F8081A2
:10026E002F5F3F4F30938101209380014091840195
:10027E00509185014150510950938501409384015D
:10028E002038310520F010928101109280010895DE
:10029E000F931F93CF93DF938C01C0E0D0E0F80152
:1002AE00EC0FFD1F80810E94AB012196F801EC0F2F
:1002BE00FD1F80818111F3CF0E94AB01DF91CF91A1
:0602CE001F910F9108953D
:1002D4001F920F920FB60F9211248F9381E0809397
:0E02E40086018F910F900FBE0F901F901895FE
:1002F200A29FB001B39FC001A39F700D811D112465
:0E030200911DB29F700D811D1124911D089553
:10031000992777FD05C005900D920197E1F70895A3
:0A03200001900D920197E1F7089596
:10032A000E947901A59F900DB49F900DA49F800D06
:06033A00911D112408953D
:10034000EC010E94BE010E94BD01CE010E94BF01CE
:06035000CE010E94BB017A
:10035600909186019923E1F3109286018093C6005D
:020366000895F8
:0A03680080918401909185010895B1
:040372000C940000E7
:040376000E9462007F
:02037A000895E4
:02037C000895E2
:02037E000895E0
:01038000017B
:00000001FF
