:100000000C9434000C9490000C9490000C9490008C
:100010000C9490000C9490000C9490000C94900020
:100020000C9490000C9490000C9490000C94900010
:100030000C9490000C9490000C9490000C94900000
:100040000C9490000C9490000C9490000C949000F0
:100050000C9490000C9490000C9490000C949000E0
:100060000C9490000C94900011241FBECFEFD8E0A8
:10007000DEBFCDBF0E9440000C948500F894FFCFF6
:100080008FEF87B981E288B92FEF83ED90E321509C
:1000900080409040E1F700C0000083E088B92FEF76
:1000A00083ED90E3215080409040E1F700C00000D4
:1000B00086E088B92FEF83ED90E321508040904097
:1000C000E1F700C000008CE088B92FEF83ED90E3EA
:1000D000215080409040E1F700C0000088E188B9DD
:1000E0002FEF83ED90E3215080409040E1F700C076
:1000F000000080E388B92FEF83ED90E3215080402A
:0A0100009040E1F700C00000BDCF01
:10010A00EC010E9495000E949400CE010E94960084
:06011A00CE010E949200DC
:040120000C9400003B
:040124000E943E00F7
:02012800089538
:02012A00089536
:02012C00089534
:00000001FF
