:100000000C9434000C9450010C9450010C94500149
:100010000C9450010C9450010C9450010C9450011C
:100020000C9450010C9450010C9450010C9450010C
:100030000C9450010C9450010C9450010C945001FC
:100040000C9450010C9450010C9450010C945001EC
:100050000C9450010C9450010C9450010C945001DC
:100060000C9450010C94500111241FBECFEFD8E026
:10007000DEBFCDBF0E94E7000C942101F894FFCFB2
:0D00800057656C636F6D6500486F6D65001E
:10008E001F93CF93DF93182F8AB18F678AB980E0C1
:10009E009AEF0197F1F78BB182608BB98BB18160CA
:1000AE008BB90E94400180E09EE40197F1F70E9417
:1000BE004001C0E0D1E0CE010197F1F70E9440016E
:1000CE00CE010197F1F78BB18E7F8BB90E94400163
:1000DE002197F1F788E20E942C0188E00E942C0102
:1000EE000E94480186E00E942C01812F0E942C0163
:0800FE00DF91CF911F910895DD
:10010600CF93DF93D82F662321F08BB180618BB913
:1001160003C08BB18F7E8BB98BB18F7D8BB98AB1C2
:100126008F608AB9CBB1C07F8D2F82958F708C2B53
:100136008BB90E944001DF70DC2BDBB90E944001C5
:0A014600CF60CBB9DF91CF9108958F
:10015000882321F08BB180618BB903C08BB18F7E76
:100160008BB98BB180628BB98AB1807F8AB98BB130
:1001700080648BB900C099B19295907F8BB18F7BD1
:100180008BB900C08BB180648BB900C089B18F700E
:0A0190002BB12F7B2BB9892B0895AA
:10019A00CF92DF92EF92A82FCB0104C00E94FF00FA
:1001AA00AE2DC6016C01EA2E2FEFC21AD20AE20A5C
:1001BA00FC018491A7FD80818111F0CFEF90DF903F
:0401CA00CF90089535
:1001CE0080E387B98EE00E9447000E9448010E949A
:1001DE004C0160E870E080E00E94CD0060E081E0BC
:1001EE000E94360168E870E080E00E94CD00EFCFFB
:1001FE00CF93C82F0E941401CA3049F4803410F4F2
:10020E0080E401C080E080580E942C0104C061E0AF
:0A021E008C2F0E948300CF910895F9
:1002280080E00E94A8008823DCF388E090E0019732
:0A023800F1F780E00E94A80008958D
:10024200EC010E9455010E945401CE010E94560108
:06025200CE010E945201E2
:10025800CF93C82F0E94140160E08C2F0E94830066
:04026800CF91089595
:10026C00611104C080580E942C01089580540E9492
:04027C002C010895B4
:100280008BB180648BB900C08BB18F7B8BB9089523
:0802900081E00E942C01089599
:0802980082E00E942C01089590
:0402A0000C940000BA
:0402A4000E943E0076
:0202A8000895B7
:0202AA000895B5
:0202AC000895B3
:00000001FF
