:100000000C9434000C9452010C9452010C94520143
:100010000C9452010C9452010C9452010C94520114
:100020000C9452010C9452010C9452010C94520104
:100030000C9452010C9452010C9452010C945201F4
:100040000C9452010C9452010C9452010C945201E4
:100050000C9452010C9452010C9452010C945201D4
:100060000C9452010C94520111241FBECFEFD8E022
:10007000DEBFCDBF0E94E7000C942301F894FFCFB0
:0D00800057656C636F6D6500486F6D65001E
:10008E001F93CF93DF93182F8AB18F678AB980E0C1
:10009E009AEF0197F1F78BB182608BB98BB18160CA
:1000AE008BB90E94420180E09EE40197F1F70E9415
:1000BE004201C0E0D1E0CE010197F1F70E9442016A
:1000CE00CE010197F1F78BB18E7F8BB90E94420161
:1000DE002197F1F788E20E942E0188E00E942E01FE
:1000EE000E944A0186E00E942E01812F0E942E015D
:0800FE00DF91CF911F910895DD
:10010600CF93DF93D82F662321F08BB180618BB913
:1001160003C08BB18F7E8BB98BB18F7D8BB98AB1C2
:100126008F608AB9CBB1C07F8D2F82958F708C2B53
:100136008BB90E944201DF70DC2BDBB90E944201C1
:0A014600CF60CBB9DF91CF9108958F
:10015000882321F08BB180618BB903C08BB18F7E76
:100160008BB98BB180628BB98AB1807F8AB98BB130
:1001700080648BB900C099B19295907F8BB18F7BD1
:100180008BB900C08BB180648BB900C089B18F700E
:0A0190002BB12F7B2BB9892B0895AA
:10019A00CF92DF92EF92A82FCB0104C00E940101F7
:1001AA00AE2DC6016C01EA2E2FEFC21AD20AE20A5C
:1001BA00FC018491A7FD80818111F0CFEF90DF903F
:0401CA00CF90089535
:1001CE0080EF8AB98EE00E9447000E944A010E9489
:1001DE004E0160E870E080E00E94CD0061E080E0BA
:1001EE000E94380168E870E080E00E94CD0080E057
:0401FE0090E00895F0
:10020200CF93C82F0E941601CA3049F4803410F4EB
:1002120080E401C080E080580E942E0104C061E0A9
:0A0222008C2F0E948300CF910895F5
:10022C0080E00E94A8008823DCF388E090E001972E
:0A023C00F1F780E00E94A800089589
:10024600EC010E9457010E945601CE010E945801FE
:06025600CE010E945401DC
:10025C00CF93C82F0E94160160E08C2F0E94830060
:04026C00CF91089591
:10027000611104C080580E942E01089580540E948C
:040280002E010895AE
:100284008BB180648BB900C08BB18F7B8BB908951F
:0802940081E00E942E01089593
:08029C0082E00E942E0108958A
:0402A4000C940000B6
:0402A8000E943E0072
:0202AC000895B3
:0202AE000895B1
:0202B0000895AF
:00000001FF
