:100000000C943A000C94DE020C94DE020C94DE0296
:100010000C94DE020C94DE020C94DE020C94DE02E0
:100020000C94DE020C94DE020C942F020C9451020C
:100030000C9443010C94DE020C94DE020C94DE025C
:100040000C94DE020C94DE020C94DE020C94DE02B0
:100050000C94DE020C94A0020C94DE020C94DE02DE
:100060000C94DE020C94DE020100024C80024C0271
:10007000500005CA11241FBECFEFD8E0DEBFCDBFB0
:10008000E8E6F0E040E017C0B591A59135912591E3
:10009000059107FD0CC095918591EF01F92FE82F8F
:1000A00005900D92A217B307D9F7FE0104C01D9267
:1000B000A217B307E1F7E437F40731F70E946400B1
:0800C0000C94BE02F894FFCF7E
:1000C8008FE084B917B81092410280E00E94DB02E9
:1000D8000E947E028AE00E94D802E1E8F0E0808176
:1000E8008B618083E0E8F0E08081826A808387E822
:1000F80093E190938700809386008CE790E090933B
:1001080089008093880089EF90E090938B0080931A
:100118008A00EFE6F0E080818462808378948091A1
:10012800420280FF06C0EFE6F0E0808182608083B3
:10013800F6CF81FDF4CF82FF06C0EFE6F0E08081C4
:100148008D7F8083ECCF83FF14C020910101309113
:1001580002014AEF429FC001439F900D1124892F4D
:1001680099278695869501979093890080938800B2
:10017800D6CF84FF3CC00E94AF020E94C902E09122
:100188004102F0E0EC5BFD4F208130E080910001FE
:1001980090E00197281739074CF4E0914102F0E00C
:1001A800EC5BFD4F80818F5F808306C0E091410248
:1001B800F0E0EC5BFD4F80810091410210E0E0919E
:1001C8004102F0E0EC5BFD4FC081D0E00E940D02DF
:1001D80044E1409F9001419F300D1124C20FD31F6D
:1001E800CC0FDD1FCF5FDE4F9983888398CF85FDC5
:1001F80042C095CF642F70E084E1869FF001879F0D
:10020800F00D1124E20FF31FEE0FFF1FEF5FFE4FFB
:10021800A081B18188E2869FF001879FF00D1124AB
:10022800EF5FFE4F808191818A0F9B1F91838083AE
:100238002F5F3F4F02C021E030E08091440290E000
:10024800019728173907B4F2242F30E088E2829FFB
:10025800F001839FF00D1124EF5FFE4F80819181A3
:10026800D901AC5BBD4F6C9170E00E946A0271834A
:0E02780060834F5F01C040E04230E8F250CF9B
:100286001F920F920FB60F9211242F933F934F9305
:100296005F936F937F938F939F93AF93BF93EF93E8
:1002A600FF93909143028DEC989F812D11248295A6
:1002B6008F70880F880F282F220F220F820F981B0E
:1002C60021E0943009F020E08091420220FB80F981
:1002D60080934202909143028DEC989F812D1124C8
:1002E60082958F70880F880F282F220F220F820F7A
:1002F600981B21E0953009F020E08091420220FB16
:1003060081F980934202909143028DEC989F812D52
:10031600112482958F70880F880F282F220F220FA5
:10032600820F981B21E0963009F020E0809142026E
:1003360020FB82F980934202909143028DEC989FB4
:10034600812D112482958F70880F880F282F220FF8
:10035600220F820F981B21E0973009F020E0809150
:10036600420220FB83F980934202909143028DEC76
:10037600989F812D112482958F70880F880F282FC2
:10038600220F220F820F981B21E0993008F420E0FB
:100396008091420220FB84F98093420290914302AD
:1003A6008DEC989F812D112482958F70880F880F70
:1003B600282F220F220F820F981B21E0923009F07E
:1003C60020E08091420220FB85F98093420225B10C
:1003D60090914E02892F90E0880F991F922F9D7F52
:1003E600892B85B980914E02809580934E020E949A
:1003F600D202FF91EF91BF91AF919F918F917F9123
:100406006F915F914F913F912F910F900FBE0F907B
:040416001F90189586
:10041A00CF93DF93EAE7F0E080818F7E808380814B
:10042A008064808380914C028823E1F3D091780024
:10043A00C09179000E948F029091410281E0891B4C
:10044A00809341028C2F90E0982F88278D2BDF9183
:04045A00CF910895A1
:10045E001F920F920FB60F9211242F938F939F938B
:10046E0025B190914D02892F90E0880F991F880F2A
:10047E00991F922F9B7F892B85B980914D02809574
:10048E0080934D029F918F912F910F900FBE0F90E1
:04049E001F901895FE
:1004A2001F920F920FB60F9211248F939F9385B1D3
:1004B20090914F028E7F892B85B980914F02809552
:1004C20080934F029F918F910F900FBE0F901F90BC
:0204D20018957B
:1004D400AA1BBB1B51E107C0AA1FBB1FA617B70766
:1004E40010F0A61BB70B881F991F5A95A9F7809582
:0804F4009095BC01CD010895B3
:1004FC00ECE7F0E0808180648083EAE7F0E08081C3
:10050C008F6880838081807F8083808186608083F8
:02051C00089540
:10051E002091410281E090E002C0880F991F2A9538
:10052E00E2F780959095EEE7F0E090818923808345
:02053E0008951E
:100540001F920F920FB60F9211248F9381E0809328
:0E0550004C028F910F900FBE0F901F901895C8
:10055E002091410281E090E002C0880F991F2A95F8
:0E056E00E2F7EEE7F0E09081892B808308959C
:10057C00EC010E94E3020E94E202CE010E94E4021E
:06058C00CE010E94E00216
:10059200ECE7F0E0808190914102807F892B80839B
:0205A2000895BA
:0C05A400809143028F5F80934302089512
:0605B00080930001089594
:0605B6008093430208954A
:0405BC000C9400009B
:0405C0000E94620033
:0205C400089598
:0205C600089596
:0205C800089594
:0105CA00012F
:0105CB00012E
:0105CC00012D
:0105CD00012C
:00000001FF
