:100000000C943A000C948C020C948C020C948C028C
:100010000C948C020C948C020C948C020C948C0228
:100020000C948C020C948C020C948C020C948C0218
:100030000C948C020C948C020C948C020C948C0208
:100040000C9493010C948C020C948C020C948C02F2
:100050000C948C020C948C020C948C020C948C02E8
:100060000C948C020C948C020100012D80012D0156
:100070002E00052611241FBECFEFD8E0DEBFCDBF76
:10008000E8E6F0E040E017C0B591A59135912591E3
:10009000059107FD0CC095918591EF01F92FE82F8F
:1000A00005900D92A217B307D9F7FE0104C01D9267
:1000B000A217B307E1F7E437F40731F70E94D7003E
:0800C0000C947502F894FFCFC7
:1000C8008F929F92AF92BF92EF92FF920F931F93DE
:1000D800CF93C82F0E9452028C2F0E945F020C2FD0
:1000E80010E0C801880F991F880F991F9C01225F93
:1000F8003E4F7901F9012081318142815381A6E483
:10010800B0E00E946A024B015C018C2F0E94F90149
:1001180020E03AEFAC01429FC001439F900D529FEF
:10012800900D1124892F9927869586954EE1489F31
:100138009001499F300D1124C501B401620F731F4E
:10014800811D911D24E630E040E050E00E94D70177
:10015800F7012083318342835383608171818281D7
:10016800938128EE33E040E050E00E94D701000F71
:10017800111FF801EE5FFE4F318320838C2F0E9400
:100188004402C13031F481E090E090930101809302
:100198000001CF911F910F91FF90EF90BF90AF900A
:0601A8009F908F90089566
:1001AE00CF93DF9300D000D0CDB7DEB70E94800290
:1001BE0081E00E94520280E00E9452028AE00E9478
:1001CE00890265E070E084E60E944A0166E070E014
:1001DE0084E60E944A010E94220278942AE62A9519
:1001EE00F1F700C060E070E085E090E00E940E0242
:1001FE008AE68A95F1F700C060E470E086E090E050
:10020E000E940E0200E010E0809100019091010129
:10021E00892BD1F09AE69A95F1F700C069817A811F
:10022E0085E090E00E940E022AE62A95F1F700C0C2
:10023E006B817C8186E090E00E940E02109201019B
:10024E001092000100E010E0802F0E946400C801AF
:10025E00880F991FFC01EE5FFE4F20813181E1E096
:10026E00F0E0EC0FFD1FE80FF91F318320838FEFB5
:10027E0091EE24E0815090402040E1F700C0000054
:06028E000F5F1F4FC1CFFE
:100294008434C1F018F4823431F00895823609F1BF
:1002A400843679F1089524B181E090E002C0880F8A
:1002B400991F6A95E2F7922F982B94B995B1892BDF
:1002C40085B908952AB181E090E002C0880F991F92
:1002D4006A95E2F7922F982B9AB99BB1892B8BB927
:1002E400089524B181E090E002C0880F991F6A95B7
:1002F400E2F7922F982B94B995B18095892385B90B
:1003040008952AB181E090E002C0880F991F6A9590
:10031400E2F7922F982B9AB99BB1809589238BB9D8
:0203240008953A
:100326001F920F920FB60F9211242F933F938F9324
:100336009F938091260190912701823E24E09207A7
:1003460034F52091290130912A012817390729F41B
:100356008091290190912A0187BD20912B0130912E
:100366002C0180912601909127012817390729F43D
:1003760080912B0190912C0188BD8091260190914E
:1003860027010196909327018093260104C01092BD
:100396002701109226019F918F913F912F910F90E7
:0803A6000FBE0F901F90189587
:1003AE00A1E21A2EAA1BBB1BFD010DC0AA1FBB1F6B
:1003BE00EE1FFF1FA217B307E407F50720F0A21BDD
:1003CE00B30BE40BF50B661F771F881F991F1A944A
:1003DE0069F760957095809590959B01AC01BD0174
:0403EE00CF0108959E
:1003F200ECE7F0E09081907F8770892B8083EAE7B9
:10040200F0E080818064808380917A0086FDFCCF59
:0A0412008091780090917900089520
:10041C008530910519F0069741F00895605E7F4F85
:10042C0070932A01609329010895605E7F4F709349
:08043C002C0160932B010895CF
:1004440010922701109226018AEF8093280183EAF3
:1004540084BD84E085BDEEE6F0E080818660808323
:060464008FE084B9089549
:10046A00A29FB001B39FC001A39F700D811D1124EB
:0E047A00911DB29F700D811D1124911D0895DA
:10048800EEE7F0E0908121E030E002C0220F331F58
:0C0498008A95E2F720952923208308951F
:1004A400EEE7F0E0908121E030E002C0220F331F3C
:0A04B4008A95E2F7292B20830895B2
:1004BE00ECE7F0E09081907F90839081987F877039
:0604CE00892B80830895D4
:1004D4000E943502A59F900DB49F900DA49F800D9E
:0604E400911D1124089592
:1004EA00EC010E9491020E949002CE010E949202A7
:0604FA00CE010E948E02FB
:10050000EAE7F0E080818668808380E480937C0065
:0205100008954C
:0605120080932D01089505
:040518000C9400003F
:04051C000E946200D7
:0205200008953C
:0205220008953A
:02052400089538
:0105260005CF
:00000001FF
