:100000000C9434000C9448000C9476000C94460038
:100010000C9446000C9446000C9446000C94460048
:100020000C9446000C9446000C9446000C94460038
:100030000C9446000C9446000C9446000C94460028
:100040000C9446000C9446000C9446000C94460018
:100050000C9446000C9446000C9446000C94460008
:100060000C9446000C94460011241FBECFEFD8E03C
:10007000DEBFCDBF21E0A0E0B1E001C01D92A43001
:10008000B207E1F70E949A000C94AE010C940000B4
:100090001F920F920FB60F9211242F933F934F93FD
:1000A0005F936F937F938F939F93AF93BF93EF93E0
:1000B000FF930E948501A0E0B0E08093000190933F
:1000C0000101A0930201B0930301FF91EF91BF9151
:1000D000AF919F918F917F916F915F914F913F91E0
:1000E0002F910F900FBE0F901F9018951F920F9297
:1000F0000FB60F9211242F933F934F935F936F93FB
:100100007F938F939F93AF93BF93EF93FF930E943F
:100110008501FF91EF91BF91AF919F918F917F9159
:100120006F915F914F913F912F910F900FBE0F9064
:100130001F90189568EA71E680E00E94AF0085E0A4
:100140000E9449018AB18C608AB986E08093690077
:1001500083E08DBB789484E10E948201FFCFCF922F
:10016000DF92EF92FF920F931F93CF93DF93182F9D
:1001700081E08127482F417050E0C2E0D0E0C41BED
:10018000D50B6B01E12CF12C9E01322F2227330F6E
:10019000330F330F032E000C440B550B60E074E259
:1001A00084EF90E00E948C01C216D306E406F506A7
:1001B00010F408E001C00AE09E01322F2227330F1D
:1001C000032E000C440B550B60E074E284EF90E0CA
:1001D0000E948C01C216D306E406F50608F406E078
:1001E0009E01002436952795079436952795079408
:1001F000322F202D032E000C440B550B60E074E2CF
:1002000084EF90E00E948C01C216D306E406F50646
:1002100008F402E09E01220F331F220F331F220F2A
:10022000331F032E000C440B550B60E074E284EF87
:1002300090E00E948C01C216D306E406F50608F48D
:1002400001E0111107C083EA84BD85B5807F082BCA
:1002500005BD14C0113049F482EA84BDE1E8F0E044
:100260008081807F082B008309C083EA8093B000DF
:10027000E1EBF0E08081807F082B008380E090E05C
:10028000DF91CF911F910F91FF90EF90DF90CF9072
:100290000895863069F028F4833069F1853079F06B
:1002A00008958A30D1F08B30F9F0893051F50EC0C5
:1002B000569AEEE6F0E08081826080830895559A38
:1002C000EEE6F0E08081846080830895219AEFE675
:1002D000F0E08081826080830895229AEFE6F0E06A
:1002E0008081846080830895239AE0E7F0E0808134
:1002F000826080830895539AE0E7F0E08081846013
:1003000080830895815088BD089580918400209154
:10031000850090E0922B0895A1E21A2EAA1BBB1B28
:10032000FD010DC0AA1FBB1FEE1FFF1FA217B307C1
:10033000E407F50720F0A21BB30BE40BF50B661FD7
:10034000771F881F991F1A9469F76095709580959B
:1003500090959B01AC01BD01CF010895F894FFCFAA
:00000001FF
