:100000000C9437000C94FD040C940B040C94FD0428
:100010000C94FD040C94FD040C94FD040C94FD045C
:100020000C94FD040C94FD040C94FD040C94FD044C
:100030000C94FD040C94FD040C94FD040C94FD043C
:100040000C94FD040C94FD040C94FD040C94FD042C
:100050000C94FD040C94FD040C94FD040C94FD041C
:100060000C94FD040C94FD040100010A800011248D
:100070001FBECFEFD8E0DEBFCDBFE8E6F0E040E046
:1000800017C0B591A59135912591059107FD0CC03B
:1000900095918591EF01F92FE82F05900D92A21708
:1000A000B307D9F7FE0104C01D92A217B307E1F709
:1000B000ED36F40731F70E94C1030C94BB04F894A9
:0200C000FFCF70
:1000C2003E5149453E00000000427F4000000000D2
:1000D20042615149460000002141454B3100000078
:1000E2001814127F10000000274545453900000012
:1000F2003C4A494930000000017109050300000033
:100102003649494936000000064949291E000000C7
:08011200004122140800000066
:10011A008080808080808080C0C0C0C0C0C0C0C0D5
:10012A00E0E0E0E0E0E0E0E0F0F0F0F0F0F0F0F045
:10013A00F8F8F8F8F8F8F8F8FCFCFCFCFCFCFCFC15
:10014A00FEFEFEFEFEFEFEFEFFFFFFFFFFFFFFFFBD
:10015A000E010E010E000E050E000D020DE010E05C
:09016A0010E000F000F02040F06C
:0F0173003E221C003A00242A1200023E02001411
:090182001C2222003C023C023C5C
:10018C00CF93DF9360E084E10E94B00420E030E084
:10019C0017C0C901032E000CAA0B8D589E4FAF4FF0
:1001AC00FC018491A7FD80818EBD0DB407FEFDCFAF
:1001BC008FE39CE90197F1F700C000002F5F3F4FE0
:1001CC002F30310534F360E087E30E94B00420E067
:1001DC0030E017C0C901032E000CAA0B8E579E4F9E
:1001EC00AF4FFC018491A7FD80818EBD0DB407FE3D
:1001FC00FDCFEFE3FCE93197F1F700C000002F5F72
:10020C003F4F2930310534F361E080E00E94B004A7
:10021C0020E030E017C0C901032E000CAA0B865A4F
:10022C009E4FAF4FFC018491A7FD80818EBD0DB414
:10023C0007FEFDCF8FE39CE90197F1F700C00000AA
:10024C002F5F3F4F2D30310534F361E080E00E9489
:10025C00B0042DE030E017C0C901032E000CAA0B2E
:10026C00865A9E4FAF4FFC018491A7FD80818EBDB5
:10027C000DB407FEFDCFEFE3FCE93197F1F700C0B9
:10028C0000002F5F3F4F2931310534F3C0E0D0E03F
:10029C0010C06C2F8EE00E94B0048FEF8EBD0DB499
:1002AC0007FEFDCF8FE39CE90197F1F700C000003A
:1002BC002196C630D1056CF365E08EE00E94B00447
:1002CC008FEF8EBD0DB407FEFDCF65E08FE00E9471
:1002DC00B00480E090E00CC020E82EBD0DB407FE09
:1002EC00FDCFEFE3FCE93197F1F700C00000019678
:0C02FC00853491058CF3DF91CF910895BB
:10030800AF92BF92DF92EF92FF920F931F93CF931A
:10031800DF9300E010E091C0F801EE5FFE4FD0805F
:10032800D694D694D694ED2CF12CA12CB12C15C0D2
:100338006A2D802F880F880F880F815F0E94B00474
:10034800C0E0D0E004C080E00E94EA042196C530F5
:10035800D105CCF38FEFA81AB80A95E0A916B10415
:100368003CF3C0E0D0E022C065E06C1B802F880F12
:10037800880F880F815F0E94B00420E030E012C02F
:10038800C901C896092E000CAA0B865E9E4FAF4F76
:10039800FC018491A7FD80818EBD0DB407FEFDCFC1
:1003A8002F5F3F4F283031055CF32196CE15DF05CE
:1003B800D8F2F801EE5FFE4F808190E0EE0CFF1C52
:1003C800EE0CFF1CEE0CFF1C8E159F0571F165E00D
:1003D8006D19802F880F880F880F815F0E94B004E5
:1003E80020E030E01FC0F801EE5FFE4F808190E012
:1003F8008E199F09880F991F880F991F880F991FB9
:10040800820F931F092E000CAA0B865E9E4FAF4FDA
:10041800FC018491A7FD80818EBD0DB407FEFDCF40
:100428002F5F3F4F25303105F4F28FE39CE90197A8
:10043800F1F700C000000F5F1F4F083011050CF4E2
:100448006BCFDF91CF911F910F91FF90EF90DF90CD
:06045800BF90AF90089573
:10045E000FC00E94D60438F00E94DD0420F09523D0
:10046E0011F00C94E4040C94FA0411240C94D004AE
:10047E000E94E90370F3959FC1F3950F50E0551F4D
:10048E00629FF001729FBB27F00DB11D639FAA27DB
:10049E00F00DB11DAA1F649F6627B00DA11D661F2A
:1004AE00829F2227B00DA11D621F739FB00DA11D4B
:1004BE00621F839FA00D611D221F749F3327A00D05
:1004CE00611D231F849F600D211D822F762F6A2FA1
:1004DE0011249F5750409AF0F1F088234AF0EE0F06
:1004EE00FF1FBB1F661F771F881F91505040A9F733
:1004FE009E3F510580F00C94E4040C94D0045F3FB1
:10050E00E4F3983ED4F3869577956795B795F7956E
:10051E00E7959F5FC1F7FE2B880F911D96958795E6
:04052E0097F908959C
:10053200CF93DF93D82F893281F440E063E28AE0DF
:100542000E94930340E06AE284E00E94930340E049
:1005520060E380E00E94930339C060E083E20E947E
:100562007E0489E2D89F812D112482958F709D2F60
:1005720024E6829F90191124CDEC9C9F812D112499
:10058200869586958695DC9FC12D1124C695C695C4
:10059200C695CC0F9C2F990F990FC90FDC1B88238E
:1005A20051F040E06AE20E94930340E060E38D2F45
:1005B2000E9493030BC0DD2349F060E08AE20E94AF
:1005C2007E0440E060E38D2F0E949303DF91CF9180
:0205D20008958A
:1005D40010920101109200018BB180618BB98FE3FD
:1005E4009CE90197F1F700C000008BB18F7E8BB9B5
:1005F4008091000190910101892BD1F38091000138
:100604009091010184379E40F0F460910001709153
:10061400010180E090E00E9427032DEB37E346E8D8
:1006240056E30E94F30420E030E040E05FE30E94E0
:10063400F30420E03CEF45E057E40E94F3040E94F9
:0A0644006403862F089589E20895EB
:10064E00E89409C097FB3EF490958095709561955E
:10065E007F4F8F4F9F4F9923A9F0F92F96E9BB2714
:10066E009395F695879577956795B795F111F8CF90
:10067E00FAF4BB0F11F460FF1BC06F5F7F4F8F4FFB
:10068E009F4F16C0882311F096E911C0772321F0F1
:10069E009EE8872F762F05C0662371F096E8862F89
:1006AE0070E060E02AF09A95660F771F881FDAF7E0
:0A06BE00880F9695879597F9089527
:1006C8000E94F10388F09F5798F0B92F9927B751E6
:1006D800B0F0E1F0660F771F881F991F1AF0BA95DE
:1006E800C9F714C0B13091F00E94CF04B1E0089569
:1006F8000C94CF04672F782F8827B85F39F0B93F5B
:10070800CCF3869577956795B395D9F73EF4909590
:0E0718008095709561957F4F8F4F9F4F08958C
:10072600CF93C82F862F642F0E94B00420E030E0BC
:1007360020C08C2F90E0880F991F880F991F880F73
:10074600991F820F931F092E000CAA0B8E539F4FE1
:10075600AF4FFC018491A7FD80818EBD0DB407FECD
:10076600FDCF8FE39CE90197F1F700C000002F5FF2
:0C0776003F4F25303105ECF2CF91089583
:100782000E9428040E94F7040E94EF040E9454046D
:100792000E943E040E94C60078940E94EA02C82F7A
:1007A200893228F089E20E949902C8E202C00E94BE
:1007B20099028C2F0E9469040E9484012FEF83EC1E
:1007C20099E0215080409040E1F700C00000E5CF61
:1007D20057FD9058440F551F59F05F3F71F04795F0
:1007E200880F97FB991F61F09F3F79F087950895D5
:1007F200121613061406551FF2CF4695F1DF08C0F4
:10080200161617061806991FF1CF86957105610510
:0408120008940895A9
:100816001F920F920FB60F9211248F939F934B9BAB
:1008260005C0109285001092840008C08091840053
:100836009091850090930101809300019F918F9183
:0A0846000F900FBE0F901F90189541
:100850008FE284B985B1856085B987EF8AB91BB805
:100860008DB382608DBBE9E6F0E080818460808397
:0C087000E1E8F0E080818360808308955F
:10087C00CF93DF9385B1826085B9C0E0D0E004C02E
:10088C0080E00E94EA042196C73F81E0D807C4F3B8
:0C089C0085B18D7F85B9DF91CF91089563
:1008A8000E94A00481E20E94C60480EC0E94C60453
:1008B8008FE00E94C60483E10E94C60480E20E9481
:0A08C800C6048CE00E94C6040895E7
:1008D20027E030E00CC0A90141505109FA01EE5F56
:1008E200FE4F9081F901EE5FFE4F90839A0112163E
:0A08F20013068CF3809302010895B1
:1008FC00CF93DF930E94B004C0E0D0E004C080E04E
:10090C000E94EA042196C530D105CCF3DF91CF913A
:02091C0008953C
:10091E00092E0394000C11F4882352F0BB0F40F4FF
:10092E00BF2B11F460FF04C06F5F7F4F8F4F9F4F3F
:02093E0008951A
:1009400085B18E7F85B92FEF81EE94E021508040F4
:100950009040E1F700C0000085B1816085B908953D
:10096000CF93C62F80680E94C6048C2F80640E949B
:06097000C604CF910895BA
:10097600EC010E9402050E940105CE010E940305BA
:06098600CE010E94FF04F7
:10098C0095B19D7F95B90E94EA0485B1826085B9C5
:02099C000895BC
:0E099E00E894BB2766277727CB0197F90895C9
:0E09AC0000240A941616170618060906089568
:0E09BA0000240A94121613061406050608956A
:0C09C80097F99F6780E870E060E00895F8
:0A09D4008EBD0DB407FEFDCF08959F
:0809DE0085B18B7F85B90895F6
:0809E6000E942F020C948F0403
:0609EE0081E58CBD0895B7
:0609F4009FEF80EC089566
:0409FA000C94000059
:0409FE000E945F00F4
:020A0200089555
:020A0400089553
:020A0600089551
:00000001FF
