:100000000C9437000C9430020C9430020C943002A3
:100010000C9430020C9430020C9430020C94300298
:100020000C9430020C9430020C9430020C94300288
:100030000C9430020C9430020C9430020C94300278
:100040000C9430020C9430020C9430020C94300268
:100050000C9430020C9430020C9430020C94300258
:100060000C9430020C9430020100010C8000112429
:100070001FBECFEFD8E0DEBFCDBFE8E6F0E040E046
:1000800017C0B591A59135912591059107FD0CC03B
:1000900095918591EF01F92FE82F05900D92A21708
:1000A000B307D9F7FE0104C01D92A217B307E1F709
:1000B000ED36F40731F70E947B010C941302F8949B
:0200C000FFCF70
:1000C200CF92DF92EF92FF920F931F93CF93C82F9D
:1000D2000E94FB018C2F0E941E0220910801309188
:1000E200090140910A0150910B01A6E4B0E00E947F
:1000F20008026B017C018C2F0E94C901DC0120E205
:1001020031EA47E050E00E940802DC01CB01072EF1
:100112007AE0B595A795979587957A95D1F7702D41
:100122008C019D01000F111F221F331F800F911F91
:10013200A21FB31F8C019D01000F111F221F331F2D
:10014200000F111F221F331F800F911FA21FB31F09
:100152008C019D01000F111F221F331FC00ED11EE3
:10016200E21EF31EC0920801D0920901E0920A0138
:10017200F0920B01609108017091090180910A01CE
:1001820090910B0124E630E040E050E00E94A7018C
:10019200209308013093090140930A0150930B0107
:1001A200609108017091090180910A0190910B01FF
:1001B20028EE33E040E050E00E94A70130930301B3
:1001C200209302018C2F0E94ED01CF911F910F917C
:0A01D200FF90EF90DF90CF900895AA
:1001DC00CF92DF92EF92FF920F931F93CF93C82F82
:1001EC000E94FB018C2F0E941E0220910401309171
:1001FC0005014091060150910701A6E4B0E00E9470
:10020C0008026B017C018C2F0E94C901DC0120E2E9
:10021C0031EA47E050E00E940802DC01CB01072ED6
:10022C007AE0B595A795979587957A95D1F7702D26
:10023C008C019D01000F111F221F331F800F911F76
:10024C00A21FB31F8C019D01000F111F221F331F12
:10025C00000F111F221F331F800F911FA21FB31FEE
:10026C008C019D01000F111F221F331FC00ED11EC8
:10027C00E21EF31EC0920401D0920501E092060129
:10028C00F0920701609104017091050180910601C3
:10029C009091070124E630E040E050E00E94A70175
:1002AC0020930401309305014093060150930701FC
:1002BC0060910401709105018091060190910701F4
:1002CC0028EE33E040E050E00E94A701309301019A
:1002DC00209300018C2F0E94ED01CF911F910F9163
:0A02EC00FF90EF90DF90CF9008958F
:1002F6000E94270284B1866084B987E893E19093CF
:1003060087008093860082EA809380008BE1809349
:10031600810084E00E94610085E00E94EE008091E9
:1003260002019091030183589F4F90938900809317
:100336008800809100019091010183589F4F90930E
:080346008B0080938A00E5CFD3
:10034E00A1E21A2EAA1BBB1BFD010DC0AA1FBB1FCB
:10035E00EE1FFF1FA217B307E407F50720F0A21B3D
:10036E00B30BE40BF50B661F771F881F991F1A94AA
:10037E0069F760957095809590959B01AC01BD01D4
:04038E00CF010895FE
:10039200ECE7F0E09081907F8770892B8083EAE719
:1003A200F0E080818064808380917A0086FDFCCFBA
:0A03B2008091780090917900089581
:1003BC00A29FB001B39FC001A39F700D811D11249A
:0E03CC00911DB29F700D811D1124911D089589
:1003DA00EEE7F0E0908121E030E002C0220F331F07
:0C03EA008A95E2F72095292320830895CE
:1003F600EEE7F0E0908121E030E002C0220F331FEB
:0A0406008A95E2F7292B2083089560
:100410000E94DE01A59F900DB49F900DA49F800DBA
:06042000911D1124089556
:10042600EC010E9435020E943402CE010E9436027F
:06043600CE010E9432021B
:10043C00ECE7F0E09081907F90839081892B808312
:02044C00089511
:10044E00EAE7F0E080818668808380E480937C0018
:02045E000895FF
:040460000C940000F8
:040464000E945F0093
:020468000895F5
:02046A000895F3
:02046C000895F1
:00000001FF
